:100000000C947F000C949C000C949C000C949C001D
:100010000C949C000C949C000C949C000C949C00F0
:100020000C949C000C949C000C949C000C949C00E0
:100030000C949C000C949C000C949C000C949C00D0
:100040000C949C000C949C000C949C000C949C00C0
:100050000C949C000C949C000C949C000C949C00B0
:100060000C949C000C949C000C949C000C949C00A0
:100070000C949C000C949C000C949C0007634236EA
:10008000B79BD8A71A39685618AEBAAB558C1D3C29
:10009000B7CC5763BD6DEDFD753EF6177231BF00ED
:1000A0000000803F08000000BE922449123EABAA27
:1000B000AA2ABECDCCCC4C3E00000080BEABAAAA82
:1000C000AA3E00000000BF000000803F00000000CA
:1000D00000084178D3BB4387D1133D190E3CC3BD03
:1000E0004282AD2B3E68EC8276BED98FE1A93E4CB0
:1000F00080EFFFBE01C4FF7F3F000000000011241D
:100100001FBECFEFD8E0DEBFCDBF12E0A0E0B1E070
:10011000EAEEF3E202C005900D92AA37B107D9F7D3
:1001200022E0AAE7B2E001C01D92AD37B207E1F7C5
:100130000E94D5090C94EA110C940000F894E89AF6
:10014000E9E6F0E080818160808378940895EF9201
:10015000FF920F931F93CF93DF9300D000D000D076
:100160000F92CDB7DEB77C018B01CE0107960E94BE
:10017000D50887B58C8388B58D8385B184728E83CD
:10018000F8016081718123E0AE014C5F5F4FC701D0
:100190000E94A006F801608171816D5F7F4F7183BD
:1001A0006083AE014F5F5F4FC7010E943105F801C8
:1001B0004081518161E071E0CE0107960E94F6080E
:1001C000498150E069E171E0CE0107960E94F6088E
:1001D0004A8150E069E271E0CE0107960E94F6087C
:1001E00027960FB6F894DEBF0FBECDBFDF91CF913B
:1001F0001F910F91FF90EF9008956F927F928F92D1
:100200009F92AF92BF92CF92DF92EF92FF920F93A5
:100210001F93CF93DF93CDB7DEB729970FB6F8942E
:10022000DEBF0FBECDBF8E01075F1F4FC8010E940A
:100230002005CE0101963C010E945F074E0198E027
:10024000890E911CC4010E9439045E0185E0A80E4C
:10025000B11C22E0A50170E060E0C8010E94920597
:10026000CD80DE80DC24CD24DC2482E0F82EE02E5C
:100270006F2D70E0C616D706B0F023E0A5018E2DD5
:10028000912F0E94920500E020E04E816D81C30114
:100290000E9481078F8185B962E0C4010E943A04FF
:1002A00093E0F90EE5CF00E020E040E060E0C3011C
:1002B0000E9481078E2D912F0E94160529960FB658
:1002C000F894DEBF0FBECDBFDF91CF911F910F918C
:1002D000FF90EF90DF90CF90BF90AF909F908F9066
:1002E0007F906F900895CF92DF92EF92FF920F93DD
:1002F0001F93CF93DF930F92CDB7DEB77C018E01B2
:100300000F5F1F4FC8010E94D50260E0C8010E9424
:10031000DE029695879596958795F701218130E0C5
:10032000225E3F4F68018217130609F00CF562E068
:10033000C8010E94DE029695879596958795F701EC
:10034000208130E0225E3F4F11E08217130609F052
:100350000CF410E0C6010E94DB02812F0F90DF91A8
:10036000CF911F910F91FF90EF90DF90CF90089564
:1003700011E0F0CF0F931F93CF93DF930F92CDB780
:10038000DEB78C01CE0101960E94D50262E0CE015B
:1003900001960E94DE029695879596958795F801BD
:1003A000808360E0CE0101960E94DE0296958795DB
:1003B00096958795F80181839081890F9927991FD8
:1003C000959587958283CE0101960E94DB020F905E
:1003D000DF91CF911F910F9108958F929F92AF92CD
:1003E000BF92CF92DF92FF920F931F93CF93DF9331
:1003F0000F92CDB7DEB7182FF92E6B01CE01019603
:100400005C010E94D50260E0C5010E94DE024C0141
:10041000969487949694879462E0C5010E94DE02C8
:100420009695879596958795F6014181242F30E022
:100430002B5F3F4F60E08216130621F01CF06281B3
:10044000641B680DF6014081242F30E02B5F3F4F85
:100450008217130699F194F13281341B380F662309
:1004600001F1361770F16317B0F5832F861B00E09A
:100470008A30F0F420E0432F632F812F9F2D0E94BC
:100480008107C5010E94DB020F90DF91CF911F9180
:100490000F91FF90DF90CF90BF90AF909F908F9083
:1004A00008953111E2CF00E020E040E060E0E5CFC8
:1004B00021E08A3108F420E0432FDFCF30E06623CB
:1004C00091F3862F831B00E020E0462F8A30A8F2AC
:1004D00001E08A3180F700E0EECF8F929F92BF92C9
:1004E000CF92DF92EF92FF920F931F93CF93DF9300
:1004F0000F92CDB7DEB7C82EB92EF62E172FD42EF9
:10050000E52ECE0101964C010E94D50800E020E0C6
:100510004AEA6FEF8F2D912F0E9481078C2D9B2D22
:100520000E94C70381110BC069E371E0C4010E94FE
:10053000DE0861E08D2D9E2D0E943A04EFCF6FE022
:100540008D2D9E2D0E943A0400E020E040E060E006
:100550008F2D912F0E9481070F90DF91CF911F91D6
:100560000F91FF90EF90DF90CF90BF909F908F9072
:100570000895FC01808190E0062E02C09595879534
:100580000A94E2F780FF0FC08FE19EE40197F1F734
:1005900000C00000808190E002C0959587956A9523
:1005A000E2F78170089580E0089510927C0086E85B
:1005B00080937A00089510927A00089580917C00CB
:1005C000807E80937C0080917C006770682B6093B4
:1005D0007C0080917A00806480937A0080917A0018
:1005E00084FFFCCF80917A00806180937A00209113
:1005F00078008091790090E0982F8827820F911DD4
:1006000008950F931F93CF93DF93EC018B010E940A
:10061000D502F80180819181A281B3818C839D8371
:10062000AE83BF838E01085F1F4FC8010E94D508AB
:100630008FE19EE40197F1F700C0000064E0CE0175
:100640000E94DE0296958795969587958983EFE1BE
:10065000FEE43197F1F700C00000898126E0622FA7
:100660000E942F0B982F990F990F980F9A838FE163
:100670009EE40197F1F700C0000089810E942F0BD2
:1006800097E0899F802D11248B83EFE1FEE4319761
:10069000F1F700C00000498150E062EF71E0C8014D
:1006A0000E94F6084A8150E06CEF71E0C8010E9498
:1006B000F6084B8150E06AE072E0C801DF91CF910B
:1006C0001F910F910C94F608FF920F931F93CF93F5
:1006D000DF93EC018B01F42E0E94D502F982F80120
:1006E00080819181A281B3818C839D83AE83BF83FE
:1006F000CE0108960E94D508898166E00E942F0BE2
:10070000982F990F990F980F9A8397E0899F802DC2
:1007100011248B83DF91CF911F910F91FF9008954A
:10072000EF92FF920F931F93CF93DF930F92CDB76A
:10073000DEB78C01CE0101960E94D502085F1F4FE3
:100740006AE172E0C8010E94DE088FE19EE4019731
:10075000F1F700C0000064E0CE0101960E94DE02C5
:100760007C016AE272E0C8010E94DE08CE010196B7
:100770000E94DB02C70196958795969587950F9005
:10078000DF91CF911F910F91FF90EF900895CF933C
:10079000DF93EC016DE372E008960E94DE08CE0163
:1007A0000E949003282F9981969581E0921708F076
:1007B00080E0DF91CF910895EF92FF920F931F9306
:1007C000CF93DF938C010E949003F82E482F50E0C6
:1007D00069E472E0C80108960E94F608C8010E9408
:1007E000C703E82EE801249681110FC000E020E045
:1007F00040E060E0CE010E9481078E2DDF91CF9115
:100800001F910F91FF90EF900895F80183819281DD
:10081000F91638F08F1538F000E020E046E966E977
:10082000E9CF8F1598F4CE010E94680810E08F3050
:1008300028F0CE010E94680811EF180FCE010E9427
:100840006508482F00E020E0612FD4CFCE010E9440
:10085000650810E08F3028F0CE010E94650811EF86
:10086000180FCE010E946808682F00E020E0412F99
:10087000C1CF089589E1689FB001112490E080E024
:100880006817790741F0EFECF7E03197F1F700C016
:1008900000000196F5CF0895CF93DF93EC010E94FD
:1008A000C5068BE290E09A83898386E08B8387E09C
:1008B0008C83DF91CF910895CF93DF93EC01CB012F
:1008C0006230710509F448C044F4009761F1613069
:1008D0007105C9F0DF91CF91089563307105D1F7AB
:1008E000CE010E94EB06E981FA8140812C8181E0F2
:1008F00090E0BC0102C0660F771F2A95E2F79B01CA
:10090000209524230AC0E981FA8120813C81AB0132
:1009100001C0440F3A95EAF7242B2083E981FA813C
:1009200020813B8111C0E981FA8120813B8181E0F6
:1009300090E0AC0101C0440F3A95EAF7242B2083E4
:10094000E981FA8120813C8101C0880F3A95EAF75C
:10095000809582238083BECFCE01DF91CF910C940E
:10096000D906CF92DF92EF92FF920F931F93CF930E
:10097000DF930F92CDB7DEB78C017B01CE010196DC
:100980006C010E94390492E0E916F10409F44BC0AD
:1009900084F4E114F10479F1EA94EF28A1F00F90C6
:1009A000DF91CF911F910F91FF90EF90DF90CF904B
:1009B000089563E070E083E0E816F10481F7C80170
:1009C0000E945C04ECCF9FE0F92E61E070E0C8016A
:1009D0000E945C0464E0C6010E943A0463E070E097
:1009E000C8010E945C0464E0C6010E943A04FA94C3
:1009F000F110EBCFD4CF8FE0F82E70E060E0C801AB
:100A00000E945C0464E0C6010E943A0463E070E066
:100A1000C8010E945C0464E0C6010E943A04FA9492
:100A2000F110EBCFBCCF62E070E0C9CF089580EA4F
:100A3000809300011092B90080E28093B80008957D
:100A4000FC0180E88083CF010C941705982F9370E8
:100A5000891305C0880F806A8093000108958FEF85
:100A60000895FA0194EA24E89093BC008091BC00B8
:100A700087FFFCCF809100018093BB002093BC00D6
:100A80008091BC0087FFFCCF8091B900883161F76D
:100A900084EA8093BC008091BC0087FFFCCF8091EA
:100AA00000018093BB0084E88093BC008091BC006F
:100AB00087FFFCCF7093BB0084E88093BC008091DB
:100AC000BC0087FFFCCF6093BB0084E88093BC0030
:100AD0008091BC0087FFFCCF8091BC0087FFFCCFDA
:100AE00084EA8093BC008091BC0087FFFCCF80919A
:100AF00000018F5F8093BB0084E88093BC008091ED
:100B0000BC0087FFFCCF84E88093BC008091BC00D0
:100B100087FFFCCF8091BB00808384E98093BC0079
:100B200080E0089594EA34E89093BC008091BC0082
:100B300087FFFCCF809100018093BB003093BC0005
:100B40008091BC0087FFFCCF8091B900883161F7AC
:100B500084EA8093BC008091BC0087FFFCCF809129
:100B600000018093BB0084E88093BC008091BC00AE
:100B700087FFFCCF7093BB0084E88093BC0080911A
:100B8000BC0087FFFCCF6093BB0084E88093BC006F
:100B90008091BC0087FFFCCF84EA8093BC008091E9
:100BA000BC0087FFFCCF809100018F5F8093BB006A
:100BB00084E88093BC008091BC0087FFFCCF84EC6C
:100BC000222381F0213009F484E88093BC009091C5
:100BD000BC0097FFFCCFFA019091BB00919321508C
:100BE000AF01EECF84E98093BC0080E0089594EAE1
:100BF00024E89093BC008091BC0087FFFCCF8091DB
:100C000000018093BB002093BC008091BC0087FF53
:100C1000FCCF8091B900883161F784EA8093BC00F1
:100C20008091BC0087FFFCCF809100018093BB00C6
:100C300084E88093BC008091BC0087FFFCCF709358
:100C4000BB0084E88093BC008091BC0087FFFCCF90
:100C50006093BB0084E88093BC008091BC0087FF58
:100C6000FCCF4093BB0084E88093BC008091BC0023
:100C700087FFFCCF84E98093BC0080E00895FB01EE
:100C8000260F372F311DDC018C918150990B862B5B
:100C90009F2B2817390718F09C012F5F3F4F822F99
:100CA0008E1B24EA34E82093BC009091BC0097FF8F
:100CB000FCCF909100019093BB003093BC009091C9
:100CC000BC0097FFFCCF9091B900983161F794EA8E
:100CD0009093BC009091BC0097FFFCCF90910001D5
:100CE0009093BB0094E89093BC009091BC0097FF58
:100CF000FCCFF093BB0094E89093BC009091BC00B3
:100D000097FFFCCFE093BB0094E89093BC009091D8
:100D1000BC0097FFFCCF982F24E8992369F0FA01D3
:100D200031913093BB002093BC003091BC0037FF61
:100D3000FCCF9150AF01F1CF94E99093BC0008959E
:100D4000DF92EF92FF920F931F93CF93DF93D82EF2
:100D5000D92F7B018A01C22F2C2FA801B7018D2D1D
:100D60009D2F0E943F06282F30E0E20EF31EC81B85
:100D7000020F131FC111F0CF80E0DF91CF911F91BF
:100D80000F91FF90EF90DF900895089510928500E5
:100D90001092840070938900609388001092800004
:100DA0008DE0809381001092820082E280936F0038
:100DB000089510927C021092B2008FE78093B300E6
:100DC0008093B40081EB8093B00081E08093B10008
:100DD0001092700008951092B000089580918800DC
:100DE0009091890090E080E00895CF93DF9300D048
:100DF00000D0CDB7DEB7262F2554330BC9016CE0E8
:100E000070E00E943B0BCB01770FAA0BBB0B8983D1
:100E10009A83AB83BC83BC01CD010E94BC0B9B01B8
:100E2000AC0160E070E080E090E40E948D0C1092D4
:100E300085001092840020E030E04CED53E469839B
:100E40007A838B839C8369817A818B819C810E94C8
:100E5000200C69837A838B839C8369817A818B815F
:100E60009C810E948B0B69837A838B839C8329816D
:100E70003A81220F331F50E040E060E072E18AE7E0
:100E800090E00E944F0B215031093093890020934C
:100E9000880080E48093800089E080938100109234
:100EA000820010926F000F900F900F900F90DF91C3
:100EB000CF910895109289001092880008952FEF25
:100EC000FC01238384B18C6384B90895FC016083A1
:100ED0004183228308950F93FC0147BD68BD85B10E
:100EE000222369F0846285B9011103C060834183C4
:100EF000228381EA84BD82E085BD0F9108958B7DB8
:100F0000F2CF0F93FC0147BD68BD222361F02A9AFE
:100F1000002359F02D9A6083418381EA84BD82E0E9
:100F200085BD0F9108952A98F3CF2D98F4CFEF92B5
:100F3000FF920F93CF93DF930F92CDB7DEB77C0173
:100F400001E020E0FC01418160E00E946B07CE01DE
:100F500001960E943904F7018181F4E68F9FC00158
:100F600011246FEF70E00E943B0B80EF9AE00E942B
:100F70003B0BCE0101960E943A04F7012281418188
:100F80006081C7010E946B070F90DF91CF910F9195
:100F9000FF90EF900895EF92FF920F93CF93DF931E
:100FA0000F92CDB7DEB77C0101E020E040E068ECB5
:100FB0000E946B07CE0101960E94390468E2CE01BF
:100FC00001960E943A04F701228141816081C701A4
:100FD0000E946B070F90DF91CF910F91FF90EF90E0
:100FE0000895AF92BF92CF92DF92EF92FF920F934C
:100FF0001F93CF93DF9300D0CDB7DEB7F82E192F14
:101000006E0182E0C80ED11CC6010E943904CE01D7
:1010100001965C010E942E0900E020E048EC68EC9B
:101020008F2D912F0E946B0760E5C6010E943A0444
:101030008F2D912F0E94CB0768E7C6010E943A04CA
:101040008F2D912F0E94CB07EC2C0D2D6501C60131
:101050000E94C109882331F061E08E2D902F0E94FB
:101060003A04F5CF00E020E040E060E08F2D912FC2
:101070000E946B07C6010E94DB020F900F90DF9168
:10108000CF911F910F91FF90EF90DF90CF90BF9085
:10109000AF9008950F9300E020E042E866E90E94D7
:1010A0006B070F9108950F9300E020E046E962E896
:1010B0000E946B070F9108950F9300E020E040E03D
:1010C00060E00E946B070F910895FC0181810895F3
:1010D000FC01808108950F931F93CF93DF93EC0160
:1010E00002E010E0FC0101931193CF010E94200562
:1010F00019830883DF91CF911F910F9108950F936A
:101100001F93CF93DF9300D000D0CDB7DEB78C0113
:10111000CE0104960E94D50887B5898388B58A8355
:1011200085B184728B83F80161917191CF0123E0C5
:10113000AE014F5F5F4F0E94A006F8018081918150
:101140000396918380830F900F900F900F90DF9103
:10115000CF911F910F910895CF93DF9300D0CDB71A
:10116000DEB7FC01819191919827892798279A836E
:10117000898322E0AE014F5F5F4F70E060E0CF01F6
:101180000E94A0060F900F90DF91CF9108951092CA
:10119000C5008FEC8093C4001092C00088E180935A
:1011A000C10086E08093C20008950C94C708809126
:1011B000C00085FFFCCF6093C60008959B0180E0CE
:1011C000F901E80FF11D9081992341F04091C00091
:1011D00045FFFCCF9093C6008F5FF2CF8091C00097
:1011E00085FFFCCF8AE08093C6000895EF92FF92BE
:1011F0000F931F93CF93DF93CDB7DEB7E2970FB670
:10120000F894DEBF0FBECDBF8C015F934F937F93E9
:101210006F93CE0101967C019F938F930E94190FCB
:10122000B701C8010E94DE080F900F900F900F9039
:101230000F900F90E2960FB6F894DEBF0FBECDBFB1
:10124000DF91CF911F910F91FF90EF9008958091C2
:10125000C00087FFFCCF8091C60008950C94D50292
:101260000F931F93CF93DF930F92CDB7DEB7CE01CD
:1012700001960E94D50264E0CE0101960E94DE0232
:101280008C01CE0101960E94DB02C80196958795DC
:10129000969587950F90DF91CF911F910F910895AB
:1012A000AF92BF92CF92DF92EF92FF920F931F9374
:1012B000CF93DF9300D000D00F92CDB7DEB7B82E1A
:1012C000092F162FCE0101967C010E945F076E0147
:1012D00095E0C90ED11CC6010E94D5088B2D902F18
:1012E0000E943009282F312F36955701C601231748
:1012F000C0F466E572E00E94DE08C7010E945C0847
:1013000080E00F900F900F900F900F90DF91CF9192
:101310001F910F91FF90EF90DF90CF90BF90AF9013
:10132000089530E0612F70E0AB014E515109241750
:10133000350774F0415F5F4F241735074CF46FE5B4
:1013400072E00E94DE08C7010E944A0881E0D9CFFE
:10135000615F7F4F6217730744F468E672E00E9492
:10136000DE08C5010E945308F1CF63E772E00E94D6
:10137000DE0800E020E046E966E9C5010E946B074F
:10138000E5CF0E943009982F81E0933308F080E088
:101390000895CF93C62F0E943009982FC69581E0FB
:1013A0009C1708F080E0CF910895CDB7DEB7A697DF
:1013B0000FB6F894DEBF0FBECDBF11B880EF8AB96B
:1013C0008FEF84B94E0183E2880E911CC4010E9404
:1013D000D5088E01085E1F4FC8010E945F075E019D
:1013E00092E2A90EB11CC5010E9439046E0183E18D
:1013F000C80ED11CC6010E944C047E019FE1E90E7B
:10140000F11CC7010E946B083E018AE0680E711C46
:10141000B801C3010E9401032E019CE1490E511C39
:10142000C2010E94BA018B858EA3302E212E4CA2C0
:101430005DA28E010F5F1F4FE0917A02F0917B0257
:10144000E930F105C8F7E451FE4E0C94710B63E4EA
:1014500071E0C4010E94DE0862E089E290E00E942F
:10146000B902882361F081E090E090937B02809341
:101470007A0268E471E0C4010E94DE08DDCF63E017
:1014800089E290E00E94B902882331F36AE571E0B5
:10149000C4010E94DE0886E090E090937B02809376
:1014A0007A02CACF6CE471E0C4010E94DE0861E0F8
:1014B00070E0C6010E94B1046BE671E0C4010E94B5
:1014C000DE0882E090E0E9CF69E771E0C4010E94A4
:1014D000DE0870E060E0C6010E94B1040E94FD00D9
:1014E000ABCF4B85632D722DC8010E94640361E868
:1014F00071E0C4010E94DE082801C2010E94DC03E1
:10150000882309F480C0C7010E947F0862E0C501FA
:101510000E943A04F2CF6BE871E0C4010E94DE0839
:1015200062E089E290E00E94B902882349F087E0F6
:1015300090E090937B0280937A0263E971E09BCF05
:1015400063E089E290E00E94B902882341F06BE9F0
:1015500071E0C4010E94DE0885E090E09ECF8CA17E
:101560009DA10E9473018823D9F267EA71E0C4014A
:101570000E94DE0884E090E090CF69EB71E0C40146
:101580000E94DE0862E070E0C6010E945C04A501D2
:10159000632D722DC3010E946D0263E070E0C601ED
:1015A0000E945C0488E090E078CF6DEC71E0C401AB
:1015B0000E94DE08C3010E94C703811182CF6CA183
:1015C0007DA1832D922D0E94ED01C7010E947F080D
:1015D00062E0C5010E943A04EDCF6BED71E0C401F9
:1015E0000E94DE084EA1632D722DC8010E94640383
:1015F0002801C2010E94DC03882329F061E0C501B3
:101600000E943A04F6CF83E090E090937B028093AF
:101610007A02C2010E94DB020FCF61EC71E0C401CB
:101620000E94DE0870E060E0C6010E945C04C70111
:101630000E94AC0861E070E0C6010E945C04C30136
:101640000E94DB02CE0181960E94160590E080E0A8
:10165000A6960FB6F894DEBF0FBECDBF0895991BB6
:1016600079E004C0991F961708F0961B881F7A9599
:10167000C9F78095089597FB072E16F4009407D0BC
:1016800077FD09D00E94770B07FC05D03EF49095BA
:1016900081959F4F0895709561957F4F0895A1E2C0
:1016A0001A2EAA1BBB1BFD010DC0AA1FBB1FEE1FDC
:1016B000FF1FA217B307E407F50720F0A21BB30B27
:1016C000E40BF50B661F771F881F991F1A9469F7A3
:1016D00060957095809590959B01AC01BD01CF01FF
:1016E0000895EE0FFF1F0590F491E02D0994AA1BB9
:1016F000BB1B51E107C0AA1FBB1FA617B70710F0FD
:10170000A61BB70B881F991F5A95A9F7809590952E
:10171000BC01CD0108950E94FF0B88F09F5798F0FF
:10172000B92F9927B751B0F0E1F0660F771F881FE6
:10173000991F1AF0BA95C9F714C0B13091F00E9400
:10174000190CB1E008950C94190C672F782F882795
:10175000B85F39F0B93FCCF3869577956795B39527
:10176000D9F73EF490958095709561957F4F8F4F96
:101770009F4F0895E89409C097FB3EF4909580959B
:10178000709561957F4F8F4F9F4F9923A9F0F92F47
:1017900096E9BB279395F695879577956795B795C5
:1017A000F111F8CFFAF4BB0F11F460FF1BC06F5FAB
:1017B0007F4F8F4F9F4F16C0882311F096E911C0BD
:1017C000772321F09EE8872F762F05C0662371F0DE
:1017D00096E8862F70E060E02AF09A95660F771FF2
:1017E000881FDAF7880F9695879597F9089557FD22
:1017F0009058440F551F59F05F3F71F04795880F7F
:1018000097FB991F61F09F3F79F087950895121615
:1018100013061406551FF2CF4695F1DF08C01616C1
:1018200017061806991FF1CF869571056105089472
:101830000895E894BB2766277727CB0197F9089589
:101840000E94330C0C94550D0E94470D38F00E94F5
:101850004E0D20F0952311F00C94170D0C941D0DD6
:1018600011240C941A0C0E94F70B70F3959FC1F38E
:10187000950F50E0551F629FF001729FBB27F00D3E
:10188000B11D639FAA27F00DB11DAA1F649F662793
:10189000B00DA11D661F829F2227B00DA11D621FE2
:1018A000739FB00DA11D621F839FA00D611D221F9C
:1018B000749F3327A00D611D231F849F600D211D80
:1018C000822F762F6A2F11249F5750409AF0F1F003
:1018D00088234AF0EE0FFF1FBB1F661F771F881F6C
:1018E00091505040A9F79E3F510580F00C94170D80
:1018F0000C941A0C5F3FE4F3983ED4F386957795E9
:101900006795B795F795E7959F5FC1F7FE2B880F11
:10191000911D9695879597F90895FA01EE0FFF1F8F
:10192000309621053105A1F16115710561F480380A
:10193000BFE39B0749F168949038810561F08038D6
:10194000BFEF9B0741F099234AF5FF3FE1053105C1
:10195000210519F1E8940894E795D901AA2329F4FF
:10196000AB2FBE2FF85FD0F310C0FF5F70F4A695C9
:10197000E0F7F73950F019F0FF3A38F49F779F936A
:101980000DD00F9007FC9058089546F00C941D0D53
:1019900060E070E080E89FE308954FE79F775F93F2
:1019A0004F933F932F930E94B00D2F913F914F91F2
:1019B0005F910E94200C0C94E50C29F416F00C9415
:1019C000170D0C94190C0C941D0D0E94FF0BA8F31D
:1019D0009638A0F707F80F92E8942BE33AEA48EB21
:1019E0005FE70E94360C0F920F920F924DB75EB7D1
:1019F0000F920E94F80DECE7F0E00E94200D4F914D
:101A00005F91EF91FF91E595EE1FFF1F49F0FE57A3
:101A1000E0684427EE0F441FFA95E1F74195550B16
:101A20000E94720D0F9007FE0C94660D089597F9B1
:101A30009F6780E870E060E008959FEF80EC089574
:101A4000DF93CF931F930F93FF92EF92DF927B016F
:101A50008C01689406C0DA2EEF010E94330CFE015F
:101A6000E894A5912591359145915591A6F3EF0103
:101A70000E94440EFE019701A801DA9469F7DF90F5
:101A8000EF90FF900F911F91CF91DF910895002467
:101A90000A941616170618060906089500240A94D3
:101AA00012161306140605060895092E0394000C59
:101AB00011F4882352F0BB0F40F4BF2B11F460FFE8
:101AC00004C06F5F7F4F8F4F9F4F08959B01AC0104
:101AD00060E070E080E89FE30C94990E0C94170D81
:101AE0000C940B0F0E94FF0BD8F39923C9F3940FAA
:101AF000511DA3F39150504094F059F0882332F0D7
:101B0000660F771F881F91505040C1F79E3F5105C7
:101B10002CF7880F911D9695879597F908955F3F4B
:101B2000ACF0983E9CF0BB27869577956795B79566
:101B300008F4B1609395C1F7BB0F58F711F460FF3B
:101B4000E8CF6F5F7F4F8F4F9F4FE3CF0C941A0CFE
:101B500016F00C940B0F0C941D0D68940C94170D3B
:101B60000E94FF0BA8F39923C1F3AEF3DF93CF9349
:101B70001F930F93FF92C92FDD2788232AF0219707
:101B8000660F771F881FDAF720E030E040E85FEB50
:101B90009FE3883920F0803E38F021968F770E94AD
:101BA0002D0EE4EAF0E004C00E942D0EE1EDF0E01D
:101BB0000E94200D8B01BE01EC01FB2E6F577109B5
:101BC0007595771F880B990B0E94BC0B28E132E7B3
:101BD00041E35FE30E94330CAF2D9801AE01FF900B
:101BE0000F911F91CF91DF910E94440E0C94550DDF
:101BF000FA01DC01AA0FBB1F9B01AC01BF5728F4FF
:101C0000222733274427507820C0B75190F4AB2FB8
:101C10000024469537952795011CA395D2F3002003
:101C200071F0220F331F441FB395DAF30ED00C94DA
:101C30002C0E61307105A0E88A07B94630F49B018B
:101C4000AC016627772788279078309621F020838B
:101C500031834283538308955058BB27AA270E949B
:101C6000440E0C94550D0E94470D38F00E944E0D05
:101C700020F039F49F3F19F426F40C941D0D0EF456
:101C8000E095E7FB0C94170DE92F0E94F70B58F332
:101C9000BA17620773078407950720F079F4A6F551
:101CA0000C94190C0EF4E0950B2EBA2FA02D0B01FD
:101CB000B90190010C01CA01A0011124FF27591B91
:101CC00099F0593F50F4503E68F11A16F040A22F97
:101CD000232F342F4427585FF3CF46953795279508
:101CE000A795F0405395C9F77EF41F16BA0B620B07
:101CF000730B840BBAF09150A1F0FF0FBB1F661F4E
:101D0000771F881FC2F70EC0BA0F621F731F841F90
:101D100048F4879577956795B795F7959E3F08F0B6
:101D2000B0CF9395880F08F09927EE0F9795879578
:101D300008950E94AD0E0C94550D0E944E0D58F062
:101D40000E94470D40F029F45F3F29F00C94170DD5
:101D500051110C941A0C0C941D0D0E94F70B68F392
:101D60009923B1F3552391F3951B550BBB27AA2754
:101D700062177307840738F09F5F5F4F220F331F8E
:101D8000441FAA1FA9F335D00E2E3AF0E0E832D056
:101D900091505040E695001CCAF72BD0FE2F29D059
:101DA000660F771F881FBB1F261737074807AB072B
:101DB000B0E809F0BB0B802DBF01FF2793585F4FA0
:101DC0003AF09E3F510578F00C94170D0C941A0CC4
:101DD0005F3FE4F3983ED4F3869577956795B79582
:101DE000F7959F5FC9F7880F911D9695879597F98D
:101DF0000895E1E0660F771F881FBB1F6217730706
:101E00008407BA0720F0621B730B840BBA0BEE1F1A
:101E100088F7E09508959F3F31F0915020F4879521
:101E200077956795B795880F911D9695879597F942
:101E30000895AEE0B0E0EFE1FFE00C94C1110D8930
:101E40001E8986E08C831A8309838FEF9FE79E8328
:101E50008D83AE01475E5F4F6F89788DCE0101960D
:101E60000E943C0F2F813885020F131FF80110824A
:101E70002E96E4E00C94DD11AFE0B0E0E2E4FFE088
:101E80000C94B3117C013B018A01DC0117961C9272
:101E90001E92169713968C9181FFBEC19AE0292E4F
:101EA000FE0131964F01D70113969C91F30193FDEA
:101EB000859193FF81913F01882309F444C18532C4
:101EC00039F493FD859193FF81913F01853229F487
:101ED000B70190E00E942511E6CFB12C412C512C86
:101EE000BFE1B51538F08B3209F188F4803201F189
:101EF000833221F157FC3AC020ED280F2A3040F5FB
:101F000056FE1FC0B29C200D1124B22E06C08D3289
:101F100091F0803379F7689450F8F30193FD85913F
:101F200093FF81913F018111DBCF20C0689451F86C
:101F3000689452F8F2CF689453F8EFCF689454F84D
:101F4000ECCF429C200D1124422E689455F8E5CF29
:101F50008E3229F456FCF7C0689456F8DECF8C36E2
:101F600019F4689457F8D9CF8836B9F2982F9F7D25
:101F700095549330C0F08336A1F18337C1F1833596
:101F800009F05BC0D801CD90DD908D016B2D70E024
:101F900056FC02C06FEF7FEFC6010E940F115C017B
:101FA000689457F80AC00C5F1F4FEFE3E983AA2437
:101FB000A394B12C6401E89457F853FC04C04A146C
:101FC0001B0409F018F5342CA114B10431F53320A9
:101FD00009F469CFB70180E290E00E9425113A949C
:101FE000F6CFD8018C9189830E5F1F4FE0CFF801A7
:101FF000C190D1908F016B2D70E056FC02C06FEF45
:102000007FEFC6010E941A115C01D5CFB70180E2B3
:1020100090E00E9425114A94D2CFF60157FC859199
:1020200057FE81916F01B70190E00E942511311098
:102030003A94B1E0AB1AB108C7CF843619F08936AB
:1020400009F071C0F80157FE67C0619171918191EB
:1020500091918F01E52DEF76DE2E97FF09C09095C7
:102060008095709561957F4F8F4F9F4F6894D7F8FB
:102070002AE030E0A4010E945511C82EC818AC2CEB
:102080005D2CD6FE0CC0E89450F8CB1440F4D4FE7E
:1020900005C0D2FC03C05D2D5E7E552EAB2C54FED8
:1020A00093C0FE01EC0DF11D8081803309F085C0E5
:1020B000652D697E562E752D7870372E53FC93C092
:1020C00050FE8DC0BC2CA41410F4B40CBA1854FEED
:1020D00090C0B70180E390E00E94251152FE07C036
:1020E00088E751FC88E590E0B7010E942511CB14E8
:1020F00008F48BC0CA94D12C8FEFC81AD80AC80C28
:10210000D91CD6018E916D01B70190E00E94251176
:102110008C149D04B1F75BCF61917191072E000C77
:10212000880B990B96CFD52CE894D4F82AE0853704
:1021300029F1F52DF97FDF2E8037A1F058F488358D
:10214000A1F08F36D1F0F701868197812F96E2E1D9
:102150000C94CF118837B9F7D4FE02C06894D2F836
:1021600020E10CC06894D4F8F7CF54FE03C02F2FA1
:102170002660D22E20E132E002C028E030E0F801F3
:10218000D7FE15C041915191619171914C875D8746
:102190006E877F878F01A4016C857D858E859F85E5
:1021A0000E945511C82EC818E894D7F868CF8191BD
:1021B0009191AC0170E060E0E9CF52FC02C0A394C1
:1021C0007ACFA394A39477CF852D867809F473CF23
:1021D000F6CFB70180E290E00E942511A394A414E9
:1021E000C0F3312C74CF342C3A18A41408F46FCFF8
:1021F000F8CF852D867809F47ACF8BE251FE80E204
:1022000057FC8DE2B70190E070CFB70180E390E01A
:102210000E942511BA946BCF8FEF9FEF97CFFC01EF
:102220000590615070400110D8F7809590958E0F01
:102230009F1F0895FC016150704001900110D8F774
:10224000809590958E0F9F1F08950F931F93CF93A6
:10225000DF93182F092FEB018B8181FD09C01FEF40
:102260000FEF812F902FDF91CF911F910F91089544
:1022700082FF14C02E813F818C819D8128173907F0
:102280003CF4E881F981CF0101969983888310831A
:102290008E819F8101969F838E83E3CFE885F985A8
:1022A000812F0995892BA1F3DACFFA01AA272830CB
:1022B00051F1203181F1E8946F936E7F6E5F7F4F13
:1022C0008F4F9F4FAF4FB1E03ED0B4E03CD0670F8F
:1022D000781F891F9A1FA11D680F791F8A1F911DE2
:1022E000A11D6A0F711D811D911DA11D20D009F432
:1022F00068943F912AE0269F11243019305D319374
:10230000DEF6CF010895462F4770405D4193B3E05C
:102310000FD0C9F7F6CF462F4F70405D4A3318F003
:10232000495D31FD4052419302D0A9F7EACFB4E0B4
:10233000A6959795879577956795BA95C9F700976C
:102340006105710508959B01AC010A2E069457950D
:10235000479537952795BA95C9F7620F731F841F64
:10236000951FA01D08952F923F924F925F926F92FA
:102370007F928F929F92AF92BF92CF92DF92EF9215
:10238000FF920F931F93CF93DF93CDB7DEB7CA1B96
:10239000DB0B0FB6F894DEBF0FBECDBF09942A88C1
:1023A000398848885F846E847D848C849B84AA8469
:1023B000B984C884DF80EE80FD800C811B81AA81F6
:1023C000B981CE0FD11D0FB6F894DEBF0FBECDBFC1
:1023D000ED010895F894FFCF270A520A710A8B0A7B
:0A23E000D50ABD0A640A0D0BED0AD0
:1023EA00A0696E737472756374696F6E45637269FE
:1023FA00747572653A202564007361757665676144
:10240A00726465473A202564007361757665676171
:10241A00726465443A202564006A6520746F757297
:10242A006E6500496E6974007665727344656275FB
:10243A0074506172636F7572730076657273446566
:10244A00627574526570726973650076657273534A
:10245A0075697672654D7572007265707269736519
:10246A00007375697672654D757200415454454E14
:10247A005445007665727346494E00766572735408
:10248A006F75726E657200766572735375697672CE
:10249A00654C756D6965726500746F75726E6572EB
:1024AA000046494E506172636F75727300737569A5
:1024BA007672654C756D69657265007375697672B9
:1024CA00654D75724E6F6E456E726567697374728B
:1024DA00650076696E67743A2025640074726F70BD
:1024EA004C6F696E5F3A2025640074726F70507287
:1024FA006F6368655F3A202564006D657375726560
:10250A007244697374616E6365006D657375726593
:10251A007244697374616E636546696E00646574BA
:10252A0065637465724D75720064697374616E6374
:10253A00653A2025640050617344654D75720054F4
:10254A00726F704C6F696E0074726F7050726F6345
:0A255A006865006E6F726D616C0021
:00000001FF
